:100000000C9434000C946D020C94E6020C94510094
:100010000C9451000C9451000C9451000C9451001C
:100020000C9451000C9451000C9451000C941F033B
:100030000C9451000C9451000C9451000C945100FC
:100040000C9451000C9451000C9451000C945100EC
:100050000C9451000C9451000C9451000C945100DC
:100060000C9451000C94510011241FBECFEFD8E026
:10007000DEBFCDBF11E0A0E0B1E0E4E5F7E002C0F3
:1000800005900D92AA32B107D9F721E0AAE2B1E0BA
:1000900001C01D92A433B207E1F70E9468020C94DC
:1000A000A8030C9400000F931F9315E00CED801B28
:1000B000910B1F910F910895409A8AE08A95F1F76C
:1000C00000C040980895CF93C82F662311F0289A56
:1000D00001C028982D98549A559A569A579A5F9825
:1000E0005E985D985C98CC230CF45F9AC6FD5E9A8E
:1000F000C5FD5D9AC4FD5C9A0E945C005F985E98A5
:100100005D985C98C3FD5F9AC2FD5E9AC1FD5D9AE1
:10011000C0FD5C9A0E945C005C9A5D9A5E9A5F9A50
:10012000CF910895882311F0289A01C028982D9A1C
:100130005498559856985798409A8AE08A95F1F7BE
:1001400000C04C9B02C080E101C080E04D998062FC
:100150004E9980644F99806840989AE09A95F1F79B
:1001600000C0409A9AE09A95F1F700C04C998160DE
:100170004D9982604E9984604F99886040980895A7
:1001800080E00E9492008823DCF38AE28A95F1F7EE
:1001900000C080E00E9492000895CF93C82F0E9473
:1001A000C00060E08C2F0E946300CF910895CF9330
:1001B000C82F0E94C00061E08C2F0E946300CF9185
:1001C0000895611104C080580E94CD0008958054A4
:1001D0000E94CD00089581E00E94CD000895CF9344
:1001E000C82F0E94C000CA3049F4803410F080E06B
:1001F00001C080E480580E94CD0004C061E08C2FD3
:100200000E946300CF910895CF93DF93EC01219674
:10021000FC018081882329F00E94EF0089918111DF
:10022000FBCFDF91CF910895CF93C82F209A259AC5
:10023000389A549A559A569A579A8FEF99EF019790
:10024000F1F700C000005D9A5C9A0E945C008FEAA2
:100250009FE40197F1F700C000000E945C008FE36B
:1002600091E00197F1F700C000000E945C008FE36D
:1002700091E00197F1F700C000005C980E945C00DB
:100280008FE391E00197F1F700C0000088E20E943F
:10029000CD0088E00E94CD000E94EB0086E00E9425
:1002A000CD008C2F0E94CD00CF910895CF93DF9386
:1002B000C0918A00D0918B004AE06BE271E0CE01E0
:1002C0000E94730360E086E00E94E1008BE291E00F
:1002D0000E94040181E191E00E94040161E086E056
:1002E0000E94E100CE010E9453006AE070E00E948B
:1002F0004B03CB014AE06BE271E00E9473038BE297
:1003000091E00E9404018CE20E94EF00CE010E9465
:10031000530099231CF49195819591096AE070E04E
:100320000E944B034AE06BE271E00E9473038BE290
:1003300091E00E9404018FED0E94EF0088E191E0BE
:100340000E94040180910001843629F461E08DE06F
:100350000E94E10027C080910001209100013091AE
:10036000000191E0823309F090E081E0243109F04E
:1003700080E0892B31F481E03A3009F080E0882375
:1003800049F086E191E00E94040161E08EE00E9464
:10039000E10008C085E191E00E94040161E08FE086
:1003A0000E94E100809100014AE06BE271E090E080
:1003B0000E9473038BE291E00E94040187E191E0C7
:1003C0000E940401DF91CF910895EF92FF920F9365
:1003D0001F93CF93DF93CDB7DEB760970FB6F89436
:1003E000DEBF0FBECDBF229A219852985398239812
:1003F0005A9A5B9A299A2B9A8CED95E090938B00F0
:1004000080938A0080E29EE4909389008093880024
:100410000E94370381E28093800082E18093810013
:10042000EFE6F0E0808182608083E9E6F0E08081A1
:1004300082608083E89A808188608083E99A7894DA
:100440008CE00E94140180E1E1E0F1E0DE01119610
:1004500001900D928A95E1F780E40E94CD008E0113
:100460000F5F1F4F7E0181E1E80EF11CF8018191C1
:100470008F010E94D7000E151F05C1F70E94EB00E7
:1004800060E080E00E94E1008AE191E00E940401C6
:1004900061E080E00E94E10080E291E00E940401BE
:1004A00060E08DE00E94E10086E291E00E9404019C
:1004B00081E00E94EF0060960FB6F894DEBF0FBE99
:1004C000CDBFDF91CF911F910F91FF90EF900895D5
:1004D0000E94E5010E945601FDCF1F920F920FB6B8
:1004E0000F9211242F933F934F935F938F939F937A
:1004F000CF93DF9300D0CDB7DEB7F89480918A0018
:1005000090918B009A8389838091000190E01999E2
:1005100003C041E050E002C04FEF5FEF489F900101
:10052000499F300D589F300D112440910001898161
:100530009A81840F911D8533984020F4121613067A
:1005400064F027C089819A8140910001841B910940
:100550008736924048F033233CF489819A81280FF2
:10056000391F3A8329830DC0121613061CF087E643
:1005700092E005C084E398E002C087E692E09A83A7
:10058000898389819A8190938B0080938A007894E3
:100590000EC089819A8140910001841B91098736A0
:1005A000924058F33323CCF287E692E0E8CF0F90E5
:1005B0000F90DF91CF919F918F915F914F913F91DC
:1005C0002F910F900FBE0F901F9018951F920F92B2
:1005D0000FB60F9211248F93F89480912A018130E5
:1005E00069F028F0823089F08330B1F01CC085E0DA
:1005F0008093000181E080932A011AC08AE08093F1
:10060000000182E080932A0113C084E180930001FD
:1006100083E080932A010CC082E38093000184E090
:1006200080932A0105C084E68093000110922A017C
:1006300078948F910F900FBE0F901F9018951F9276
:100640000F920FB60F9211248F939F93F8941B99DA
:1006500006C08CED95E090938B0080938A0078948F
:100660009F918F910F900FBE0F901F90189580E172
:1006700090E09093C5008093C40082E08093C00016
:10068000E1ECF0E088E1808386E08093C200808125
:1006900080688083089597FB072E16F4009407D096
:1006A00077FD09D00E945F0307FC05D03EF49095CA
:1006B00081959F4F0895709561957F4F0895AA1B6E
:1006C000BB1B51E107C0AA1FBB1FA617B70710F03D
:1006D000A61BB70B881F991F5A95A9F7809590956F
:1006E000BC01CD010895BB274A3031F4992322F48F
:1006F000BDE2909581959F4F0C947F03BB27FB0132
:100700005527AA27880F991FAA1FA41710F0A41B0A
:1007100083955051B9F7A05DAA3308F0A95DA19364
:10072000009779F7B111B1931192CB010C94980312
:10073000DC01FC01672F71917723E1F7329704C048
:100740007C916D9370836291AE17BF07C8F30895D3
:04075000F894FFCF4B
:1007540005040E1504040404040404040404150E1E
:1007640004757320002020202000576964746800F9
:0A077400416E676C650053740000CD
:00000001FF
