:100000000C9434000C9473020C94F3020C94510081
:100010000C9451000C9451000C9451000C9451001C
:100020000C9451000C9451000C9451000C94460314
:100030000C9451000C9451000C9451000C945100FC
:100040000C9451000C9451000C9451000C945100EC
:100050000C9451000C9451000C9451000C945100DC
:100060000C9451000C94510011241FBECFEFD8E026
:10007000DEBFCDBF11E0A0E0B1E0E8E1F8E002C0F2
:1000800005900D92AC35B107D9F721E0ACE5B1E0B0
:1000900001C01D92A736B207E1F70E945E020C94E0
:1000A0000A040C9400000F931F9315E00CED801BC5
:1000B000910B1F910F910895409A85E08A95F1F771
:1000C000000040980895CF93C82F662311F0289A16
:1000D00001C028982D98549A559A569A579A5F9825
:1000E0005E985D985C98CC230CF45F9AC6FD5E9A8E
:1000F000C5FD5D9AC4FD5C9A0E945C005F985E98A5
:100100005D985C98C3FD5F9AC2FD5E9AC1FD5D9AE1
:10011000C0FD5C9A0E945C005C9A5D9A5E9A5F9A50
:10012000CF910895882311F0289A01C028982D9A1C
:100130005498559856985798409A85E08A95F1F7C3
:1001400000004C9B02C080E101C080E04D998062BC
:100150004E9980644F998068409895E09A95F1F7A0
:100160000000409A95E09A95F1F700004C99816063
:100170004D9982604E9984604F99886040980895A7
:1001800080E00E9492008823DCF385E18A95F1F7F4
:10019000000080E00E9492000895CF93C82F0E9433
:1001A000C00060E08C2F0E946300CF910895CF9330
:1001B000C82F0E94C00061E08C2F0E946300CF9185
:1001C0000895611104C080580E94CD0008958054A4
:1001D0000E94CD00089581E00E94CD000895CF9344
:1001E000C82F0E94C000CA3049F4803410F080E06B
:1001F00001C080E480580E94CD0004C061E08C2FD3
:100200000E946300CF910895CF93DF93EC01219674
:10021000FC018081882329F00E94EF0089918111DF
:10022000FBCFDF91CF910895CF93C82F209A259AC5
:10023000389A549A559A569A579A8FEF99EF019790
:10024000F1F700C000005D9A5C9A0E945C008FE1AB
:100250009EE40197F1F700C000000E945C008FEF60
:1002600090E00197F1F700C000000E945C008FEF62
:1002700090E00197F1F700C000005C980E945C00DC
:100280008FEF90E00197F1F700C0000088E20E9434
:10029000CD0088E00E94CD000E94EB0086E00E9425
:1002A000CD008C2F0E94CD00CF9108958091010147
:1002B000909102014AE06EE571E00E94D50360E092
:1002C00086E00E94E1008EE591E00E94040183E156
:1002D00091E00E94040161E086E00E94E1008091CB
:1002E0000101909102010E9453006AE070E00E94B7
:1002F000AD03CB014AE06EE571E00E94D5038EE5C7
:1003000091E00E9404018CE20E94EF0080910101C3
:10031000909102010E94530099231CF491958195BC
:1003200091096AE070E00E94AD034AE06EE571E079
:100330000E94D5038EE591E00E9404018FED0E949A
:10034000EF008AE191E00E9404018091000184366F
:1003500029F461E08DE00E94E10027C08091000156
:10036000209100013091000191E0823309F090E08A
:1003700081E0243109F080E0892B31F481E03A30CA
:1003800009F080E0882349F088E191E00E940401AF
:1003900061E08EE00E94E10008C087E191E00E94E8
:1003A000040161E08FE00E94E100809100014AE0D9
:1003B0006EE571E090E00E94D5038EE591E00E9429
:1003C000040189E191E00E9404010895EF92FF92F7
:1003D0000F931F93CF93DF93CDB7DEB760970FB620
:1003E000F894DEBF0FBECDBF229A21985298539841
:1003F00023985A9A5B9A299A2B9A0E94760381E253
:100400008093800082E180938100E9E6F0E08081C2
:1004100082608083E89A808188608083E99A7894FA
:100420008CE00E94140180E1E3E0F1E0DE0111962E
:1004300001900D928A95E1F780E40E94CD008E0133
:100440000F5F1F4F7E0181E1E80EF11CF8018191E1
:100450008F010E94D7000E151F05C1F70E94EB0007
:1004600060E080E00E94E1008CE191E00E940401E4
:1004700061E080E00E94E10082E291E00E940401DC
:1004800060E08DE00E94E10088E291E00E940401BA
:1004900081E00E94EF0080E29EE4909389008093C7
:1004A000880060960FB6F894DEBF0FBECDBFDF9117
:1004B000CF911F910F91FF90EF9008950E94E60158
:1004C0008BE291E00E949203CAE8D0E080910101A2
:1004D000909102019983888380910101909102019A
:1004E0000E945601F3CF1F920F920FB60F92112464
:1004F0002F933F934F935F936F937F938F939F932C
:10050000AF93BF93EF93FF93F89481E391E00E9440
:1005100092038091000190E0199903C041E050E0FE
:1005200002C04FEF5FEF489F9001499F300D589FE9
:10053000300D112440910001809101019091020140
:10054000840F911D8533984020F41216130674F021
:1005500029C0809101019091020140910001841B0A
:1005600091098736924068F033235CF48091010151
:1005700090910201280F391F30930201209301014D
:100580000FC0121613061CF087E692E005C084E344
:1005900098E002C087E692E0909302018093010107
:1005A000789410C080910101909102014091000166
:1005B000841B91098736924068F33323BCF287E6A7
:1005C00092E0EACFFF91EF91BF91AF919F918F9110
:1005D0007F916F915F914F913F912F910F900FBE3F
:1005E0000F901F9018951F920F920FB60F92112423
:1005F0002F933F934F935F936F937F938F939F932B
:10060000AF93BF93EF93FF93F89487E391E00E9439
:10061000920380915C01813069F028F0823089F08A
:100620008330B1F01CC085E08093000181E08093AD
:100630005C011AC08AE08093000182E080935C0133
:1006400013C084E18093000183E080935C010CC0BF
:1006500082E38093000184E080935C0105C084E61E
:100660008093000110925C017894FF91EF91BF910B
:10067000AF919F918F917F916F915F914F913F913A
:100680002F910F900FBE0F901F9018951F920F92F1
:100690000FB60F9211242F933F934F935F936F9355
:1006A0007F938F939F93AF93BF93EF93FF93F894B0
:1006B0001B990AC08DE491E00E9492038CED95E0B5
:1006C00090930201809301017894FF91EF91BF9183
:1006D000AF919F918F917F916F915F914F913F91DA
:1006E0002F910F900FBE0F901F90189580E190E012
:1006F0009093C5008093C40082E08093C000E1EC39
:10070000F0E088E1808386E08093C2008081806889
:1007100080830895E0ECF0E0908195FFFDCF809319
:10072000C6000895CF93DF93EC0180915D0191E0C5
:10073000980F90935D018A3021F40E948A031092F1
:100740005D018881882331F021960E948A03899176
:100750008111FBCFDF91CF91089597FB072E16F4FF
:10076000009407D077FD09D00E94C10307FC05D093
:100770003EF4909581959F4F0895709561957F4FB8
:100780000895AA1BBB1B51E107C0AA1FBB1FA617D8
:10079000B70710F0A61BB70B881F991F5A95A9F72A
:1007A00080959095BC01CD010895BB274A3031F466
:1007B000992322F4BDE2909581959F4F0C94E1031B
:1007C000BB27FB015527AA27880F991FAA1FA4172B
:1007D00010F0A41B83955051B9F7A05DAA3308F01F
:1007E000A95DA193009779F7B111B1931192CB0153
:1007F0000C94FA03DC01FC01672F71917723E1F778
:10080000329704C07C916D9370836291AE17BF07DD
:08081000C8F30895F894FFCF2E
:1008180005DC05040E15040404040404040404049B
:10082800150E047573200020202020005769647479
:100838006800416E676C65005374004C4F4F500A56
:1008480000494E543020007365745F7374657020DE
:10085800627574746F6E20494E5431200054494DAE
:0C08680045523120434F4D50412000000C
:00000001FF
