:100000000C9434000C9476020C94E2020C9451008F
:100010000C9451000C9451000C9451000C9451001C
:100020000C9451000C9451000C9451000C94190341
:100030000C9451000C9451000C9451000C945100FC
:100040000C9451000C9451000C942F030C945D03FC
:100050000C9451000C9451000C9451000C945100DC
:100060000C9451000C94510011241FBECFEFD8E026
:10007000DEBFCDBF11E0A0E0B1E0EEEFF7E002C0DF
:1000800005900D92AC32B107D9F721E0ACE2B1E0B6
:1000900001C01D92AB37B207E1F70E9465020C94D4
:1000A000FD030C9400000F931F9315E00CED801BD3
:1000B000910B1F910F910895409A85E08A95F1F771
:1000C000000040980895CF93C82F662311F0289A16
:1000D00001C028982D98549A559A569A579A5F9825
:1000E0005E985D985C98CC230CF45F9AC6FD5E9A8E
:1000F000C5FD5D9AC4FD5C9A0E945C005F985E98A5
:100100005D985C98C3FD5F9AC2FD5E9AC1FD5D9AE1
:10011000C0FD5C9A0E945C005C9A5D9A5E9A5F9A50
:10012000CF910895882311F0289A01C028982D9A1C
:100130005498559856985798409A85E08A95F1F7C3
:1001400000004C9B02C080E101C080E04D998062BC
:100150004E9980644F998068409895E09A95F1F7A0
:100160000000409A95E09A95F1F700004C99816063
:100170004D9982604E9984604F99886040980895A7
:1001800080E00E9492008823DCF385E18A95F1F7F4
:10019000000080E00E9492000895CF93C82F0E9433
:1001A000C00060E08C2F0E946300CF910895CF9330
:1001B000C82F0E94C00061E08C2F0E946300CF9185
:1001C0000895611104C080580E94CD0008958054A4
:1001D0000E94CD00089581E00E94CD000895CF9344
:1001E000C82F0E94C000CA3049F4803410F080E06B
:1001F00001C080E480580E94CD0004C061E08C2FD3
:100200000E946300CF910895CF93DF93EC01219674
:10021000FC018081882329F00E94EF0089918111DF
:10022000FBCFDF91CF910895CF93C82F209A259AC5
:10023000389A549A559A569A579A8FEF99EF019790
:10024000F1F700C000005D9A5C9A0E945C008FE1AB
:100250009EE40197F1F700C000000E945C008FEF60
:1002600090E00197F1F700C000000E945C008FEF62
:1002700090E00197F1F700C000005C980E945C00DC
:100280008FEF90E00197F1F700C0000088E20E9434
:10029000CD0088E00E94CD000E94EB0086E00E9425
:1002A000CD008C2F0E94CD00CF9108954AE062E7E7
:1002B00071E080910101909102010E94C80360E009
:1002C00086E00E94E10082E791E00E94040183E160
:1002D00091E00E94040161E086E00E94E1008091CB
:1002E0000101909102010E9453006AE070E00E94B7
:1002F000A003CB014AE062E771E00E94C80382E7F5
:1003000091E00E9404018CE20E94EF0080910101C3
:10031000909102010E94530099231CF491958195BC
:1003200091096AE070E00E94A0034AE062E771E090
:100330000E94C80382E791E00E9404018FED0E94B1
:10034000EF008AE191E00E9404018091000184366F
:1003500029F461E08DE00E94E10027C08091000156
:10036000209100013091000191E0823309F090E08A
:1003700081E0243109F080E0892B31F481E03A30CA
:1003800009F080E0882349F088E191E00E940401AF
:1003900061E08EE00E94E10008C087E191E00E94E8
:1003A000040161E08FE00E94E100809100014AE0D9
:1003B00062E771E090E00E94C80382E791E00E944A
:1003C000040189E191E00E9404010895EF92FF92F7
:1003D0000F931F93CF93DF93CDB7DEB760970FB620
:1003E000F894DEBF0FBECDBF229A21985298539841
:1003F00023985A9A5B9A299A2B9A87E690E00E9452
:10040000870381E28093800082E180938100EFE6A0
:10041000F0E0808182608083E9E6F0E080818260A4
:100420008083E89A808188608083E99A78948CE060
:100430000E94140180E1E3E0F1E0DE0111960190F9
:100440000D928A95E1F780E40E94CD008E010F5F46
:100450001F4F7E0181E1E80EF11CF80181918F01AF
:100460000E94D7000E151F05C1F70E94EB0060E047
:1004700080E00E94E1008CE191E00E94040161E0D3
:1004800080E00E94E10082E291E00E94040160E0CD
:100490008DE00E94E10088E291E00E94040181E089
:1004A0000E94EF0080E29EE4909389008093880090
:1004B00060960FB6F894DEBF0FBECDBFDF91CF912F
:1004C0001F910F91FF90EF9008950E94E601CAE8F6
:1004D000D0E08091010190910201998388838091FD
:1004E0000101909102010E945601F3CF1F920F92D9
:1004F0000FB60F9211242F933F934F935F936F93F7
:100500007F938F939F938091000190E0199903C08E
:1005100041E050E002C04FEF5FEF489F9001499FDC
:10052000300D589F300D1124409100018091010140
:1005300090910201BC01640F711DAB01453358401D
:1005400020F41216130664F022C040910001BC0191
:10055000641B7109AB014736524048F033233CF429
:10056000820F931F90930201809301011EC0121607
:1005700013061CF087E692E005C084E398E002C011
:1005800087E692E090930201809301010EC04091B2
:100590000001BC01641B7109AB014736524080F376
:1005A0003323F4F287E692E0EDCF9F918F917F9114
:1005B0006F915F914F913F912F910F900FBE0F90D0
:1005C0001F9018951F920F920FB60F9211248F93C0
:1005D00080912C01813069F028F0823089F08330DD
:1005E000B1F01CC085E08093000181E080932C0174
:1005F0001AC08AE08093000182E080932C0113C02E
:1006000084E18093000183E080932C010CC082E39D
:100610008093000184E080932C0105C084E68093E0
:10062000000110922C018F910F900FBE0F901F9020
:1006300018951F920F920FB60F9211248F939F93CC
:100640001B9906C08CED95E0909302018093010107
:100650009F918F910F900FBE0F901F9018951F9232
:100660000F920FB60F9211242F938F939F93EF93B6
:10067000FF938091C0002091C6008C71E0912F0102
:10068000EF5FEF7190912E01E91739F0E0932F01A0
:10069000F0E0EE5CFE4F208301C082E090912D01DE
:1006A000892B80932D01FF91EF919F918F912F9135
:1006B0000F900FBE0F901F9018951F920F920FB6BC
:1006C0000F9211248F939F93EF93FF939091310199
:1006D00080913001981769F0E0913001EF5FEF7180
:1006E000E0933001F0E0EE5AFE4F80818093C60027
:1006F00005C0E1ECF0E080818F7D8083FF91EF9178
:100700009F918F910F900FBE0F901F901895109290
:1007100031011092300110922F0110922E01992375
:100720001CF422E02093C00090789093C500809341
:10073000C40088E98093C10086E08093C2000895D8
:1007400097FB072E16F4009407D077FD09D00E947E
:10075000B40307FC05D03EF4909581959F4F089512
:10076000709561957F4F0895AA1BBB1B51E107C08F
:10077000AA1FBB1FA617B70710F0A61BB70B881F31
:10078000991F5A95A9F780959095BC01CD010895C0
:10079000BB274A3031F4992322F4BDE2909581952C
:1007A0009F4F0C94D403BB27FB015527AA27880F22
:1007B000991FAA1FA41710F0A41B83955051B9F7D5
:1007C000A05DAA3308F0A95DA193009779F7B11154
:1007D000B1931192CB010C94ED03DC01FC01672F66
:1007E00071917723E1F7329704C07C916D93708308
:0E07F0006291AE17BF07C8F30895F894FFCFCB
:1007FE0005DC05040E1504040404040404040404B6
:10080E00150E047573200020202020005769647493
:0C081E006800416E676C650053740000B8
:00000001FF
